00BDIN9999BOVESPA 999920160617201606171823                                                                                                                                                                                                                                                                                                                    
0101IBOVESPA                      0494090494040501900497060495750544772016042703749720160126049533+00025+00102+00023+00023+00219-00257+01427-0069802703100105961782800000043805230000000593730955300049660                                                                                                                                                    
0102IEELETRICA                    0276650276530279190278230278190290702016051202087320160120027746+00069+00111+00135+00135+00261+00118+01187-0075701000500001507053400000002813790000000038377464600027772                                                                                                                                                    
0103IVBX2                         0077340077310078170077650077590081632016042700634320160126007736+00001+00089-00001-00001+00150-00142+00821-0005302302600105038119700000021922330000000262970257100007758                                                                                                                                                    
0104IBRX BRASIL                   0204140204070207180205260204760223752016042701575720160126020457+00021+00097+00019+00019+00202-00241+01281-0073304805000210072887100000052103700000000636772471200020507                                                                                                                                                    
0106IBRX 50                       0083130083110084430083610083390091752016042700638620160126008334+00026+00101+00035+00035+00223-00260+01328-0081402302600105055763900000041058200000000567694828800008354                                                                                                                                                    
0108IGOVERNANCA                   0077910077690078820078110077940083542016042700619420160126007777-00018+00088-00004-00004+00161-00192+01087-0061309208000618164723600000042028600000000516367119600007802                                                                                                                                                    
0109ISUSTENTABIL                  0021160021080021360021190021160023152016032100187220160126002114-00012+00121-00068-00068-00021-00256-00017-0150301902100004030411400000018794300000000259767949700002117                                                                                                                                                    
0110ITAG ALONG                    0111250110880112610111490111210119642016042700884320160126011100-00022+00102-00008-00008+00138-00231+01196-0034908607400717551764400000028464630000000435028370300011133                                                                                                                                                    
0111INDUSTRIAL                    0113600113290114820113940113760126902016032201102120160126011330-00029+00058-00193-00193-00326-00543-01001-0143901902500404821456400000014767930000000138486201000011376                                                                                                                                                    
0112SMALL CAP                     0009380009380009480009420009420009732016051200072220160126000939+00014+00051-00086-00086+00319+00088+01133-0077603302800106221322900000016989120000000088196929200000942                                                                                                                                                    
0113MIDLARGE CAP                  0009460009460009600009510009490010422016042700073120160126000948+00023+00101+00029+00029+00189-00271+01299-0072302502800105453263100000035701990000000554794180800000950                                                                                                                                                    
0114ICONSUMO                      0026600026600026930026760026740027812016060800220720160126002670+00036+00029-00146-00146+00189-00045+00703-0075102001200103317394500000008712680000000155215715700002675                                                                                                                                                    
0115IMOBILIARIO                   0005690005650005730005670005670006242016051200041720160126000566-00053+00062-00113-00113+00288-00409+03035+0124200500900001404464000000001904950000000016599263500000567                                                                                                                                                    
0116IFINANCEIRO                   0052710052350053530052770052540058882016042700391120160121005245-00049+00123+00018+00018+00147-00329+02129+0009100501000001512778900000009631960000000189145355400005266                                                                                                                                                    
0117ICO2                          0012280012230012440012310012280013512016042700097420160121001227-00006+00092+00002+00002+00060-00354+01183-0057301301700103136131700000020997460000000367389419400001230                                                                                                                                                    
0118IGC TRADE                     0020670020600020940020730020670022482016042700161020160126002063-00018+00100+00011+00011+00195-00206+01217-0067705205400210863822700000041579000000000514126069700002070                                                                                                                                                    
0119UTILITIES                     0030280030280030480030390030390030912016051200215020160120003028+00005+00142+00123+00123+00400+00260+02364+0059001000700001708922000000003483530000000050952848000003035                                                                                                                                                    
0120I DIVIDENDOS                  0023870023780024210023960023890027322016042000169820160121002380-00029+00104-00016-00016+00054-00256+01752-0112101201700002921166800000011326210000000147568725600002392                                                                                                                                                    
0121IMAT BASICOS                  0011960011860012150011990011940015502016042000104620160202001186-00084+00117-00053-00053-00492-00647-01226-0162500600500001114236300000012170600000000094015995000001197                                                                                                                                                    
0122IBRASIL                       0018910018900019190019010018970020692016042700146020160126001895+00023+00096+00018+00018+00201-00237+01285-0072605805600211674586000000052691110000000642991110000001900                                                                                                                                                    
0123BDRX                          0038670038000038670038130038060043482016010500380120160617003801-00173-00009-00138-00138-00678-00080-01341+0125000402000009800003300000000002180000000000323193600003868                                                                                                                                                    
0124IND FDO IMOB                  0016330016270016380016320016330016422016061000130520160128001632-00007-00010-00061-00061+00126+00157+01588+0130503002501107000346000000000024957000000002234589793001631                                                                                                                                                    
0125IGC - NM                      0018120018090018300018170018150019032016051200147920160126001810-00014+00069-00018-00018+00151-00146+00939-0046606205100311836489800000017846280000000297351702700001815                                                                                                                                                    
0202LOTE PADRAO                   3M          DRN        MMMC34      010VISTA          0000000001443000000014430000000144300000001443000000014430-000880000001430900000014549000010000000000001000000000000144300000000000000000000000MOEDA CORRENTE 00000010000000000000BRMMMCBDR0001170               0000000088                                            
0202LOTE PADRAO                   ABBOTT      DRN        ABTT34      010VISTA          0000000000000000000000000000000000000000000000000000000000/000000000000316300000003212000000000000000000000000000000000000000000000000000000000MOEDA CORRENTE 00000010000000000000BRABTTBDR0071180               0000000000                                            
0202LOTE PADRAO                   ABC BRASIL  PN      N2 ABCB4       010VISTA          0000000000121400000001215000000011880000000120400000001190-001890000000119000000001193004240000000000868000000000010452910000000000000000000000MOEDA CORRENTE 00000010000000000000BRABCBACNPR41250               0000000189                                            
0202LOTE PADRAO                   ACO ALTONA  PN         EALT4       010VISTA          0000000000000000000000000000000000000000000000000000000000/000000000000115000000001320000000000000000000000000000000000000000000000000000000000MOEDA CORRENTE 00000010000000000000BREALTACNPR11280               0000000000                                            
0202LOTE PADRAO                   AES ELPA    ON         AELP3       010VISTA          0000000000000000000000000000000000000000000000000000000000/000000000000000000000000979000000000000000000000000000000000000000000000000000000000MOEDA CORRENTE 00000010000000000000BRAELPACNOR21230               0000000000                                            
0202LOTE PADRAO                   AES TIETE E ON      N2 TIET3       010VISTA          0000000000000000000000000000000000000000000000000000000000/000000000000031000000000330000000000000000000000000000000000000000000000000000000000MOEDA CORRENTE 00000010000000000000BRTIETACNOR01020               0000000000                                            
0202LOTE PADRAO                   AES TIETE E PN      N2 TIET4       010VISTA          0000000000000000000000000000000000000000000000000000000000/000000000000027900000000290000000000000000000000000000000000000000000000000000000000MOEDA CORRENTE 00000010000000000000BRTIETACNPR71020               0000000000                                            
0202LOTE PADRAO                   AES TIETE E UNT     N2 TIET11      010VISTA          0000000000141300000001424000000013700000000137600000001370-003040000000137000000001379010400000000010613000000000146054820000000000000000000000MOEDA CORRENTE 00000010000000000000BRTIETCDAM151020               0000000304                                            
0202LOTE PADRAO                   AFLUENTE    ON         AFLU3       010VISTA          0000000000000000000000000000000000000000000000000000000000/000000000000000000000000399000000000000000000000000000000000000000000000000000000000MOEDA CORRENTE 00000010000000000000BRAFLUACNOR91200               0000000000                                            
0202LOTE PADRAO                   AFLUENTE T  ON         AFLT3       010VISTA          0000000000000000000000000000000000000000000000000000000000/000000000000022800000000300000000000000000000000000000000000000000000000000000000000MOEDA CORRENTE 00000010000000000000BRAFLTACNOR11080               0000000000                                            
0202LOTE PADRAO                   ALFA CONSORCON         BRGE3       010VISTA          0000000000000000000000000000000000000000000000000000000000/000000000000020300000000340000000000000000000000000000000000000000000000000000000000MOEDA CORRENTE 00000010000000000000BRBRGEACNOR61990               0000000000                                            
0202LOTE PADRAO                   ALFA CONSORCPNB        BRGE6       010VISTA          0000000000000000000000000000000000000000000000000000000000/000000000000040200000000800000000000000000000000000000000000000000000000000000000000MOEDA CORRENTE 00000010000000000000BRBRGEACNPB72030               0000000000                                            
0202LOTE PADRAO                   ALFA CONSORCPND        BRGE8       010VISTA          0000000000000000000000000000000000000000000000000000000000/000000000000030300000000340000000000000000000000000000000000000000000000000000000000MOEDA CORRENTE 00000010000000000000BRBRGEACNPD32050               0000000000                                            
0202LOTE PADRAO                   ALFA CONSORCPNE        BRGE11      010VISTA          0000000000000000000000000000000000000000000000000000000000/000000000000038100000001000000000000000000000000000000000000000000000000000000000000MOEDA CORRENTE 00000010000000000000BRBRGEACNPE10960               0000000000                                            
0202LOTE PADRAO                   ALFA CONSORCPNF        BRGE12      010VISTA          0000000000000000000000000000000000000000000000000000000000/000000000000030200000000325000000000000000000000000000000000000000000000000000000000MOEDA CORRENTE 00000010000000000000BRBRGEACNPF80930               0000000000                                            
0202LOTE PADRAO                   ALFA FINANC ON         CRIV3       010VISTA          0000000000025300000000276000000002530000000025400000000276+011290000000024800000000276000060000000000035000000000000088780000000000000000000000MOEDA CORRENTE 00000010000000000000BRCRIVACNOR41900               0000001129                                            
0202LOTE PADRAO                   ALFA FINANC PN         CRIV4       010VISTA          0000000000031500000000321000000003150000000031700000000321+001900000000031800000000328000120000000000702000000000002226390000000000000000000000MOEDA CORRENTE 00000010000000000000BRCRIVACNPR11950               0000000190                                            
0202LOTE PADRAO                   ALFA HOLDINGON         RPAD3       010VISTA          0000000000000000000000000000000000000000000000000000000000/000000000000016600000000269000000000000000000000000000000000000000000000000000000000MOEDA CORRENTE 00000010000000000000BRRPADACNOR11950               0000000000                                            
0202LOTE PADRAO                   ALFA HOLDINGPNA        RPAD5       010VISTA          0000000000000000000000000000000000000000000000000000000000/000000000000042400000000450000000000000000000000000000000000000000000000000000000000MOEDA CORRENTE 00000010000000000000BRRPADACNPA42020               0000000000                                            
0202LOTE PADRAO                   ALFA HOLDINGPNB        RPAD6       010VISTA          0000000000000000000000000000000000000000000000000000000000/000000000000017400000000240000000000000000000000000000000000000000000000000000000000MOEDA CORRENTE 00000010000000000000BRRPADACNPB21950               0000000000                                            
0202LOTE PADRAO                   ALFA INVEST ON         BRIV3       010VISTA          0000000000051800000000518000000005030000000051800000000503-006850000000050200000000525000080000000000101000000000000523030000000000000000000000MOEDA CORRENTE 00000010000000000000BRBRIVACNOR62020               0000000685                                            
0202LOTE PADRAO                   ALFA INVEST PN         BRIV4       010VISTA          0000000000068200000000685000000006820000000068500000000685+000730000000066300000000690000060000000000075000000000000513450000000000000000000000MOEDA CORRENTE 00000010000000000000BRBRIVACNPR32020               0000000073                                            
0202LOTE PADRAO                   ALIANSCE    ON      NM ALSC3       010VISTA          0000000000131500000001325000000013070000000131500000001314+000530000000131300000001325007990000000001225000000000016105080000000000000000000000MOEDA CORRENTE 00000010000000000000BRALSCACNOR01090               0000000053                                            
0202LOTE PADRAO                   ALIPERTI    ON         APTI3       010VISTA          0000000000000000000000000000000000000000000000000000000000/000000000003000000000000000000000000000000000000000000000000000000000000000000000000MOEDA CORRENTE 00000010000000000000BRAPTIACNOR61280               0000000000                                            
0202LOTE PADRAO                   ALIPERTI    PN         APTI4       010VISTA          0000000000000000000000000000000000000000000000000000000000/000000000003000000000000000000000000000000000000000000000000000000000000000000000000MOEDA CORRENTE 00000010000000000000BRAPTIACNPR31280               0000000000                                            
0202LOTE PADRAO                   ALPARGATAS  ON      N1 ALPA3       010VISTA          0000000000000000000000000000000000000000000000000000000000/000000000000100500000001019000000000000000000000000000000000000000000000000000000000MOEDA CORRENTE 00000010000000000000BRALPAACNOR02170               0000000000                                            
0202LOTE PADRAO                   ALPARGATAS  PN      N1 ALPA4       010VISTA          0000000000098600000000990000000009740000000098300000000974-000610000000097400000000975012000000000002883000000000028339550000000000000000000000MOEDA CORRENTE 00000010000000000000BRALPAACNPR72170               0000000061                                            
0202LOTE PADRAO                   ALPHABET    DRN        GOGL34      010VISTA          0000000000962500000009710000000096250000000967700000009680-003770000000951900000009687000030000000000064000000000006193300000000000000000000000MOEDA CORRENTE 00000010000000000000BRGOGLBDR0011000               0000000377                                            
0202LOTE PADRAO                   ALPHABET    DRN        GOGL35      010VISTA          0000000000000000000000000000000000000000000000000000000000/000000000000935400000009521000000000000000000000000000000000000000000000000000000000MOEDA CORRENTE 00000010000000000000BRGOGLBDR0191000               0000000000                                            
0202LOTE PADRAO                   ALUPAR      UNT     N2 ALUP11      010VISTA          0000000000128900000001299000000012820000000129400000001295+000380000000129000000001296006960000000002146000000000027763690000000000000000000000MOEDA CORRENTE 00000010000000000000BRALUPCDAM151050               0000000038                                            
0202LOTE PADRAO                   AMAZON      DRN        AMZO34      010VISTA          0000000000000000000000000000000000000000000000000000000000/000000000011907300000120932000000000000000000000000000000000000000000000000000000000MOEDA CORRENTE 00000010000000000000BRAMZOBDR0021010               0000000000                                            
0202LOTE PADRAO                   AMAZONIA    ON         BAZA3       010VISTA          0000000000002900000000031000000000290000000003000000000029=000000000000002900000000030000670000000006430000000000001948500000000000000000000000MOEDA CORRENTE 00000010000000000000BRBAZAACNOR01680               0000000000                                            
0202LOTE PADRAO                   AMBEV S/A   ON        .ABEV3       010VISTA          0000000000187700000001879000000018380000000186000000001861-000320000000186000000001861163750000000159146000000002959416500000000000000000000000MOEDA CORRENTE 00000010000000000000BRABEVACNOR11120               0000000032                                            
0202LOTE PADRAO                   AMGEN       DRN        AMGN34      010VISTA          0000000000000000000000000000000000000000000000000000000000/000000000005071100000051504000000000000000000000000000000000000000000000000000000000MOEDA CORRENTE 00000010000000000000BRAMGNBDR0041180               0000000000                                            
0202LOTE PADRAO                   AMPLA ENERG ON         CBEE3       010VISTA          0000000000000000000000000000000000000000000000000000000000/000000000000200000000004300000000000000000000000000000000000000000000000000000000000MOEDA CORRENTE 00000010000000000000BRCBEEACNOR31520               0000000000                                            
0202LOTE PADRAO                   ANIMA       ON      NM ANIM3       010VISTA          0000000000120600000001222000000011610000000117900000001161-004040000000116100000001184004300000000001187000000000013999650000000000000000000000MOEDA CORRENTE 00000010000000000000BRANIMACNOR61030               0000000404                                            
0202LOTE PADRAO                   APPLE       DRN        AAPL34      010VISTA          0000000000335000000003350000000032560000000328500000003256-003460000000325200000003287000090000000000150000000000004927960000000000000000000000MOEDA CORRENTE 00000010000000000000BRAAPLBDR0041170               0000000346                                            
0202LOTE PADRAO                   ARCELOR     DRN        ARMT34      010VISTA          0000000000000000000000000000000000000000000000000000000000/000000000000085300000000885000000000000000000000000000000000000000000000000000000000MOEDA CORRENTE 00000010000000000000BRARMTBDR0081140               0000000000                                            
0202LOTE PADRAO                   AREZZO CO   ON      NM ARZZ3       010VISTA          0000000000248300000002490000000024420000000246400000002460-000400000000246000000002474005810000000000848000000000020893710000000000000000000000MOEDA CORRENTE 00000010000000000000BRARZZACNOR31200               0000000040                                            
0202LOTE PADRAO                   ARTERIS     ON         ARTR3       010VISTA          0000000000000000000000000000000000000000000000000000000000/000000000000100100000001005000000000000000000000000000000000000000000000000000000000MOEDA CORRENTE 00000010000000000000BRARTRACNOR31060               0000000000                                            
0202LOTE PADRAO                   AVON        DRN        AVON34      010VISTA          0000000000000000000000000000000000000000000000000000000000/000000000000066500000000699000000000000000000000000000000000000000000000000000000000MOEDA CORRENTE 00000010000000000000BRAVONBDR0091210               0000000000                                            
0202LOTE PADRAO                   AZEVEDO     ON         AZEV3       010VISTA          0000000000000000000000000000000000000000000000000000000000/000000000000015000000000220000000000000000000000000000000000000000000000000000000000MOEDA CORRENTE 00000010000000000000BRAZEVACNOR01160               0000000000                                            
0202LOTE PADRAO                   AZEVEDO     PN         AZEV4       010VISTA          0000000000013200000000134000000001320000000013300000000134+001510000000011100000000134000060000000000007000000000000009280000000000000000000000MOEDA CORRENTE 00000010000000000000BRAZEVACNPR71160               0000000151                                            
0202LOTE PADRAO                   B2W DIGITAL ON      NM BTOW3       010VISTA          0000000000093000000000944000000009100000000092000000000931+000100000000092300000000931032840000000006205000000000057088060000000000000000000000MOEDA CORRENTE 00000010000000000000BRBTOWACNOR81080               0000000010                                            
0202LOTE PADRAO                   BAHEMA      ON         BAHI3       010VISTA          0000000000025000000000250000000002500000000025000000000250=000000000000024000000000250000010000000000001000000000000002500000000000000000000000MOEDA CORRENTE 00000010000000000000BRBAHIACNOR10680               0000000000                                            
0202LOTE PADRAO                   BANCO PAN   PN      N1 BPAN4       010VISTA          0000000000016000000000160000000001510000000015500000000151-004430000000015100000000158000180000000000345000000000000533780000000000000000000000MOEDA CORRENTE 00000010000000000000BRBPANACNPR11040               0000000443                                            
0202LOTE PADRAO                   BANESE      ON         BGIP3       010VISTA          0000000000000000000000000000000000000000000000000000000000/000000000000183000000001884000000000000000000000000000000000000000000000000000000000MOEDA CORRENTE 00000010000000000000BRBGIPACNOR11860               0000000000                                            
0202LOTE PADRAO                   BANESE      PN         BGIP4       010VISTA          0000000000111600000001116000000011160000000111600000001116=000000000000109600000001130000010000000000001000000000000011160000000000000000000000MOEDA CORRENTE 00000010000000000000BRBGIPACNPR81860               0000000000                                            
0202LOTE PADRAO                   BANESTES    ON         BEES3       010VISTA          0000000000022000000000226000000002130000000021800000000223-001760000000021500000000226000170000000000037000000000000080760000000000000000000000MOEDA CORRENTE 00000010000000000000BRBEESACNOR92820               0000000176                                            
0202LOTE PADRAO                   BANESTES    PN         BEES4       010VISTA          0000000000023000000000246000000002280000000023700000000228-011960000000021800000000246000040000000000004000000000000009490000000000000000000000MOEDA CORRENTE 00000010000000000000BRBEESACNPR62070               0000001196                                            
0202LOTE PADRAO                   BANK AMERICADRN        BOAC34      010VISTA          0000000000000000000000000000000000000000000000000000000000/000000000000451000000004606000000000000000000000000000000000000000000000000000000000MOEDA CORRENTE 00000010000000000000BRBOACBDR0041230               0000000000                                            
0202LOTE PADRAO                   BANPARA     ON         BPAR3       010VISTA          0000000000000000000000000000000000000000000000000000000000/000000000000056600000000000000000000000000000000000000000000000000000000000000000000MOEDA CORRENTE 00000010000000000000BRBPARACNOR51380               0000000000                                            
0202LOTE PADRAO                   BANRISUL    ON  EJ  N1 BRSR3       010VISTA          0000000000000000000000000000000000000000000000000000000000/000000000000083100000000998000000000000000000000000000000000000000000000000000000000MOEDA CORRENTE 00000010000000000000BRBRSRACNOR31440               0000000000                                            
0202LOTE PADRAO                   BANRISUL    PNA EJ  N1 BRSR5       010VISTA          0000000000000000000000000000000000000000000000000000000000/000000000000072700000001200000000000000000000000000000000000000000000000000000000000MOEDA CORRENTE 00000010000000000000BRBRSRACNPA61480               0000000000                                            
0202LOTE PADRAO                   BANRISUL    PNB EJ  N1 BRSR6       010VISTA          0000000000076300000000767000000007330000000074300000000735-003030000000073500000000736029630000000006807000000000050601730000000000000000000000MOEDA CORRENTE 00000010000000000000BRBRSRACNPB41470               0000000303                                            
0202LOTE PADRAO                   BANSANTANDERDR3        BSAN33      010VISTA          0000000000000000000000000000000000000000000000000000000000/000000000000120000000001800000000000000000000000000000000000000000000000000000000000MOEDA CORRENTE 00000010000000000000BRBSANBDR0021060               0000000000                                            
0202LOTE PADRAO                   BARDELLA    PN         BDLL4       010VISTA          0000000000319000000003190000000031900000000319000000003190+002900000000301000000003280000020000000000010000000000000319000000000000000000000000MOEDA CORRENTE 00000010000000000000BRBDLLACNPR81510               0000000290                                            
0202LOTE PADRAO                   BATTISTELLA ON         BTTL3       010VISTA          0000000000129500000001295000000012950000000129500000001295+003680000000080000000001300000010000000000001000000000000012950000000000000000000000MOEDA CORRENTE 00000010000000000000BRBTTLACNOR01060               0000000368                                            
0202LOTE PADRAO                   BATTISTELLA PN         BTTL4       010VISTA          0000000000096000000000965000000009450000000096000000000945+000630000000080000000000965000030000000000012000000000000115150000000000000000000000MOEDA CORRENTE 00000010000000000000BRBTTLACNPR71060               0000000063                                            
0202LOTE PADRAO                   BAUMER      PN         BALM4       010VISTA          0000000000080200000000802000000008000000000080100000000800-005880000000000000000000800000020000000000009000000000000072100000000000000000000000MOEDA CORRENTE 00000010000000000000BRBALMACNPR20470               0000000588                                            
0202LOTE PADRAO                   BBSEGURIDADEON      NM.BBSE3       010VISTA          0000000000274000000002775000000026820000000272700000002715-000400000000268900000002715084930000000056183000000001531961270000000000000000000000MOEDA CORRENTE 00000010000000000000BRBBSEACNOR51060               0000000040                                            
0202LOTE PADRAO                   BERKSHIRE   DRN        BERK34      010VISTA          0000000000000000000000000000000000000000000000000000000000/000000000004770700000048671000000000000000000000000000000000000000000000000000000000MOEDA CORRENTE 00000010000000000000BRBERKBDR0021000               0000000000                                            
0202LOTE PADRAO                   BIC MONARK  ON         BMKS3       010VISTA          0000000000000000000000000000000000000000000000000000000000/000000000002450000000026499000000000000000000000000000000000000000000000000000000000MOEDA CORRENTE 00000010000000000000BRBMKSACNOR91580               0000000000                                            
0202LOTE PADRAO                   BIOMM       ON      MA BIOM3       010VISTA          0000000000000000000000000000000000000000000000000000000000/000000000000070000000000790000000000000000000000000000000000000000000000000000000000MOEDA CORRENTE 00000010000000000000BRBIOMACNOR21040               0000000000                                            
0202LOTE PADRAO                   BIOSEV      ON      NM BSEV3       010VISTA          0000000000106000000001060000000010600000000106000000001060-001940000000075500000001080000010000000000003000000000000031800000000000000000000000MOEDA CORRENTE 00000010000000000000BRBSEVACNOR31010               0000000194                                            
0202LOTE PADRAO                   BLACKROCK   DRN        BLAK34      010VISTA          0000000001960100000019601000000196010000001960100000019601-001830000000000000000000000000010000000000001000000000000196010000000000000000000000MOEDA CORRENTE 00000010000000000000BRBLAKBDR0031010               0000000183                                            
0202LOTE PADRAO                   BMFBOVESPA  ON      NM.BVMF3       010VISTA          0000000000162900000001632000000016050000000161300000001607-000370000000160700000001613126910000000136203000000002196886240000000000000000000000MOEDA CORRENTE 00000010000000000000BRBVMFACNOR31370               0000000037                                            
0202LOTE PADRAO                   BOEING      DRN        BOEI34      010VISTA          0000000004440500000044405000000444050000004440500000044405-003900000000000000000000000000010000000000002000000000000888100000000000000000000000MOEDA CORRENTE 00000010000000000000BRBOEIBDR0031170               0000000390                                            
0202LOTE PADRAO                   BOMBRIL     PN         BOBR4       010VISTA          0000000000015700000000158000000001570000000015800000000158+000630000000015100000000158000030000000000009000000000000014210000000000000000000000MOEDA CORRENTE 00000010000000000000BRBOBRACNPR31280               0000000063                                            
0202LOTE PADRAO                   BOSTON PROP DRN        BOXP34      010VISTA          0000000000000000000000000000000000000000000000000000000000/000000000000428800000004349000000000000000000000000000000000000000000000000000000000MOEDA CORRENTE 00000010000000000000BRBOXPBDR0081030               0000000000                                            
0202LOTE PADRAO                   BR BROKERS  ON      NM BBRK3       010VISTA          0000000000016000000000163000000001570000000016100000000160-001230000000015600000000160001630000000002147000000000003452120000000000000000000000MOEDA CORRENTE 00000010000000000000BRBBRKACNOR41100               0000000123                                            
0202LOTE PADRAO                   BR INSURANCEON      NM BRIN3       010VISTA          0000000000209000000002091000000020020000000207100000002077+001360000000207700000002090001020000000000528000000000010934480000000000000000000000MOEDA CORRENTE 00000010000000000000BRBRINACNOR31110               0000000136                                            
0202LOTE PADRAO                   BR MALLS PARON      NM.BRML3       010VISTA          0000000000117600000001187000000011590000000117000000001169-000760000000116800000001169066460000000032298000000000377847120000000000000000000000MOEDA CORRENTE 00000010000000000000BRBRMLACNOR91090               0000000076                                            
0202LOTE PADRAO                   BR PHARMA   ON      NM BPHA3       010VISTA          0000000000044800000000531000000004480000000049600000000491+018880000000049100000000496005640000000002684000000000013323110000000000000000000000MOEDA CORRENTE 00000010000000000000BRBPHAACNOR61040               0000001888                                            
0202LOTE PADRAO                   BR PROPERT  ON      NM BRPR3       010VISTA          0000000000081500000000815000000007930000000080100000000800-001350000000080000000000801025830000000011717000000000093802640000000000000000000000MOEDA CORRENTE 00000010000000000000BRBRPRACNOR91160               0000000135                                            
0202LOTE PADRAO                   BRADESCO    ON      N1.BBDC3       010VISTA          0000000000257700000002605000000025280000000255300000002549+000190000000253800000002549042440000000020168000000000514856560000000000000000000000MOEDA CORRENTE 00000010000000000000BRBBDCACNOR16490               0000000019                                            
0202LOTE PADRAO                   BRADESCO    PN      N1.BBDC4       010VISTA          0000000000247000000002483000000023930000000242500000002421-000610000000241600000002421147470000000122403000000002968201390000000000000000000000MOEDA CORRENTE 00000010000000000000BRBBDCACNPR86490               0000000061                                            
0202LOTE PADRAO                   BRADESPAR   ON      N1 BRAP3       010VISTA          0000000000068000000000693000000006800000000068500000000680+002250000000065300000000680000180000000000033000000000000226110000000000000000000000MOEDA CORRENTE 00000010000000000000BRBRAPACNOR51290               0000000225                                            
0202LOTE PADRAO                   BRADESPAR   PN      N1.BRAP4       010VISTA          0000000000079200000000819000000007920000000081000000000805+002540000000080400000000805098100000000034394000000000278551850000000000000000000000MOEDA CORRENTE 00000010000000000000BRBRAPACNPR21290               0000000254                                            
0202LOTE PADRAO                   BRASIL      ON  EJ  NM.BBAS3       010VISTA          0000000000163300000001668000000016000000000162200000001600-001170000000160000000001605215680000000129982000000002108771270000000000000000000000MOEDA CORRENTE 00000010000000000000BRBBASACNOR32610               0000000117                                            
0202LOTE PADRAO                   BRASILAGRO  ON      NM AGRO3       010VISTA          0000000000111000000001130000000011040000000111700000001128+002450000000112400000001134000630000000000332000000000003709440000000000000000000000MOEDA CORRENTE 00000010000000000000BRAGROACNOR71040               0000000245                                            
0202LOTE PADRAO                   BRASKEM     ON      N1 BRKM3       010VISTA          0000000000166300000001663000000016630000000166300000001663+000910000000161000000001663000050000000000009000000000000149670000000000000000000000MOEDA CORRENTE 00000010000000000000BRBRKMACNOR11130               0000000091                                            
0202LOTE PADRAO                   BRASKEM     PNA     N1.BRKM5       010VISTA          0000000000195200000001969000000019190000000193600000001929-000560000000192900000001932044430000000009807000000000189840550000000000000000000000MOEDA CORRENTE 00000010000000000000BRBRKMACNPA41130               0000000056                                            
0202LOTE PADRAO                   BRASKEM     PNB     N1 BRKM6       010VISTA          0000000000000000000000000000000000000000000000000000000000/000000000000080000000001290000000000000000000000000000000000000000000000000000000000MOEDA CORRENTE 00000010000000000000BRBRKMACNPB21110               0000000000                                            
0202LOTE PADRAO                   BRASMOTOR   ON         BMTO3       010VISTA          0000000000000000000000000000000000000000000000000000000000/000000000000040000000000550000000000000000000000000000000000000000000000000000000000MOEDA CORRENTE 00000010000000000000BRBMTOACNOR91860               0000000000                                            
0202LOTE PADRAO                   BRASMOTOR   PN         BMTO4       010VISTA          0000000000000000000000000000000000000000000000000000000000/000000000000044400000000507000000000000000000000000000000000000000000000000000000000MOEDA CORRENTE 00000010000000000000BRBMTOACNPR60710               0000000000                                            
0202LOTE PADRAO                   BRB BANCO   PN         BSLI4       010VISTA          0000000000000000000000000000000000000000000000000000000000/000000000000150000000001781000000000000000000000000000000000000000000000000000000000MOEDA CORRENTE 00000010000000000000BRBSLIACNPR21570               0000000000                                            
0202LOTE PADRAO                   BRF SA      ON      NM.BRFS3       010VISTA          0000000000456200000004564000000044660000000449900000004500-000040000000450000000004503097410000000034627000000001557912540000000000000000000000MOEDA CORRENTE 00000010000000000000BRBRFSACNOR81160               0000000004                                            
0202LOTE PADRAO                   BTG PACTUAL UNT        BBTG11      010VISTA          0000000000180900000001854000000017760000000181500000001854+002030000000184700000001854011450000000003304000000000059955300000000000000000000000MOEDA CORRENTE 00000010000000000000BRBBTGUNT0071130               0000000203                                            
0202LOTE PADRAO                   CAIXAETFXBOVCI         XBOV11      010VISTA          0000000000497900000004995000000049480000000497000000004950+000690000000462000000000000000270000000000240700000000011963806000000000000000000000MOEDA CORRENTE 00000010000000000000BRXBOVCTF0051000               0000000069                                            
0202LOTE PADRAO                   CAMBUCI     PN         CAMB4       010VISTA          0000000000005900000000059000000000520000000005400000000054-010000000000005200000000055000720000000001185000000000000637970000000000000000000000MOEDA CORRENTE 00000010000000000000BRCAMBACNPR11170               0000001000                                            
0202LOTE PADRAO                   CASAN       ON         CASN3       010VISTA          0000000000000000000000000000000000000000000000000000000000/000000000000132500000001800000000000000000000000000000000000000000000000000000000000MOEDA CORRENTE 00000010000000000000BRCASNACNOR61120               0000000000                                            
0202LOTE PADRAO                   CASAN       PN         CASN4       010VISTA          0000000000000000000000000000000000000000000000000000000000/000000000000179800000000000000000000000000000000000000000000000000000000000000000000MOEDA CORRENTE 00000010000000000000BRCASNACNPR31120               0000000000                                            
0202LOTE PADRAO                   CATERPILLAR DRN        CATP34      010VISTA          0000000000000000000000000000000000000000000000000000000000/000000000002569100000026092000000000000000000000000000000000000000000000000000000000MOEDA CORRENTE 00000010000000000000BRCATPBDR0031190               0000000000                                            
0202LOTE PADRAO                   CCR SA      ON      NM.CCRO3       010VISTA          0000000000157800000001588000000015500000000156100000001560-000950000000155800000001560119540000000038907000000000607399220000000000000000000000MOEDA CORRENTE 00000010000000000000BRCCROACNOR21290               0000000095                                            
0202LOTE PADRAO                   CCX CARVAO  ON  ES  NM CCXC3       010VISTA          0000000000026200000000284000000002500000000025900000000284+003640000000026100000000280000370000000000300000000000000777100000000000000000000000MOEDA CORRENTE 00000010000000000000BRCCXCACNOR51020               0000000364                                            
0202LOTE PADRAO                   CEB         ON         CEBR3       010VISTA          0000000000000000000000000000000000000000000000000000000000/000000000000000000000002950000000000000000000000000000000000000000000000000000000000MOEDA CORRENTE 00000010000000000000BRCEBRACNOR51150               0000000000                                            
0202LOTE PADRAO                   CEB         PNA        CEBR5       010VISTA          0000000000000000000000000000000000000000000000000000000000/000000000000000000000003200000000000000000000000000000000000000000000000000000000000MOEDA CORRENTE 00000010000000000000BRCEBRACNPA81140               0000000000                                            
0202LOTE PADRAO                   CEB         PNB        CEBR6       010VISTA          0000000000000000000000000000000000000000000000000000000000/000000000000151000000001900000000000000000000000000000000000000000000000000000000000MOEDA CORRENTE 00000010000000000000BRCEBRACNPB61140               0000000000                                            
0202LOTE PADRAO                   CEDRO       ON      N1 CEDO3       010VISTA          0000000000000000000000000000000000000000000000000000000000/000000000000020000000000749000000000000000000000000000000000000000000000000000000000MOEDA CORRENTE 00000010000000000000BRCEDOACNOR80960               0000000000                                            
0202LOTE PADRAO                   CEDRO       PN      N1 CEDO4       010VISTA          0000000000000000000000000000000000000000000000000000000000/000000000000030100000000450000000000000000000000000000000000000000000000000000000000MOEDA CORRENTE 00000010000000000000BRCEDOACNPR51280               0000000000                                            
0202LOTE PADRAO                   CEEE-D      ON  EG  N1 CEED3       010VISTA          0000000000000000000000000000000000000000000000000000000000/000000000000110000000003400000000000000000000000000000000000000000000000000000000000MOEDA CORRENTE 00000010000000000000BRCEEDACNOR91020               0000000000                                            
0202LOTE PADRAO                   CEEE-D      PN  EG  N1 CEED4       010VISTA          0000000000000000000000000000000000000000000000000000000000/000000000000110000000003600000000000000000000000000000000000000000000000000000000000MOEDA CORRENTE 00000010000000000000BRCEEDACNPR61020               0000000000                                            
0202LOTE PADRAO                   CEEE-GT     ON  EG  N1 EEEL3       010VISTA          0000000000000000000000000000000000000000000000000000000000/000000000000200000000006400000000000000000000000000000000000000000000000000000000000MOEDA CORRENTE 00000010000000000000BREEELACNOR81030               0000000000                                            
0202LOTE PADRAO                   CEEE-GT     PN  EG  N1 EEEL4       010VISTA          0000000000000000000000000000000000000000000000000000000000/000000000000370000000008000000000000000000000000000000000000000000000000000000000000MOEDA CORRENTE 00000010000000000000BREEELACNPR51030               0000000000                                            
0202LOTE PADRAO                   CELESC      ON      N2 CLSC3       010VISTA          0000000000000000000000000000000000000000000000000000000000/000000000000194500000002200000000000000000000000000000000000000000000000000000000000MOEDA CORRENTE 00000010000000000000BRCLSCACNOR61320               0000000000                                            
0202LOTE PADRAO                   CELESC      PN      N2 CLSC4       010VISTA          0000000000120500000001205000000011870000000118900000001199+001350000000118800000001200000100000000000020000000000000237830000000000000000000000MOEDA CORRENTE 00000010000000000000BRCLSCACNPR31110               0000000135                                            
0202LOTE PADRAO                   CELGENE CORPDRN        CLGN34      010VISTA          0000000000000000000000000000000000000000000000000000000000/000000000003341900000033952000000000000000000000000000000000000000000000000000000000MOEDA CORRENTE 00000010000000000000BRCLGNBDR0021000               0000000000                                            
0202LOTE PADRAO                   CELGPAR     ON         GPAR3       010VISTA          0000000000000000000000000000000000000000000000000000000000/000000000000040000000000000000000000000000000000000000000000000000000000000000000000MOEDA CORRENTE 00000010000000000000BRGPARACNOR41020               0000000000                                            
0202LOTE PADRAO                   CELPA       ON         CELP3       010VISTA          0000000000017500000000175000000001700000000017000000000173-000570000000016600000000173000110000000002668000000000004536140000000000000000000000MOEDA CORRENTE 00000010000000000000BRCELPACNOR81140               0000000057                                            
0202LOTE PADRAO                   CELPA       PNA        CELP5       010VISTA          0000000000000000000000000000000000000000000000000000000000/000000000000010000000000230000000000000000000000000000000000000000000000000000000000MOEDA CORRENTE 00000010000000000000BRCELPACNPA11160               0000000000                                            
0202LOTE PADRAO                   CELPA       PNB        CELP6       010VISTA          0000000000000000000000000000000000000000000000000000000000/000000000000005000000000000000000000000000000000000000000000000000000000000000000000MOEDA CORRENTE 00000010000000000000BRCELPACNPB91160               0000000000                                            
0202LOTE PADRAO                   CELPA       PNC        CELP7       010VISTA          0000000000000000000000000000000000000000000000000000000000/000000000000010000000000200000000000000000000000000000000000000000000000000000000000MOEDA CORRENTE 00000010000000000000BRCELPACNPC71160               0000000000                                            
0202LOTE PADRAO                   CELPE       PNA        CEPE5       010VISTA          0000000000000000000000000000000000000000000000000000000000/000000000000150000000002320000000000000000000000000000000000000000000000000000000000MOEDA CORRENTE 00000010000000000000BRCEPEACNPA61550               0000000000                                            
0202LOTE PADRAO                   CELPE       PNB        CEPE6       010VISTA          0000000000000000000000000000000000000000000000000000000000/000000000000000000000002400000000000000000000000000000000000000000000000000000000000MOEDA CORRENTE 00000010000000000000BRCEPEACNPB41550               0000000000                                            
0202LOTE PADRAO                   CELUL IRANI ON         RANI3       010VISTA          0000000000000000000000000000000000000000000000000000000000/000000000000021400000000219000000000000000000000000000000000000000000000000000000000MOEDA CORRENTE 00000010000000000000BRRANIACNOR50490               0000000000                                            
0202LOTE PADRAO                   CELUL IRANI PN         RANI4       010VISTA          0000000000000000000000000000000000000000000000000000000000/000000000000031000000000311000000000000000000000000000000000000000000000000000000000MOEDA CORRENTE 00000010000000000000BRRANIACNPR20500               0000000000                                            
0202LOTE PADRAO                   CEMAR       ON      MB ENMA3B      010VISTA          0000000000000000000000000000000000000000000000000000000000/000000000000180000000002090000000000000000000000000000000000000000000000000000000000MOEDA CORRENTE 00000010000000000000BRENMAACNOR51140               0000000000                                            
0202LOTE PADRAO                   CEMEPE      ON         MAPT3       010VISTA          0000000000000000000000000000000000000000000000000000000000/000000000000000000000000700000000000000000000000000000000000000000000000000000000000MOEDA CORRENTE 00000010000000000000BRMAPTACNOR81060               0000000000                                            
0202LOTE PADRAO                   CEMEPE      PN         MAPT4       010VISTA          0000000000000000000000000000000000000000000000000000000000/000000000000019000000000300000000000000000000000000000000000000000000000000000000000MOEDA CORRENTE 00000010000000000000BRMAPTACNPR51060               0000000000                                            
0202LOTE PADRAO                   CEMIG       ON      N1 CMIG3       010VISTA          0000000000058500000000602000000005850000000059500000000589+001200000000058900000000597005020000000001037000000000006173240000000000000000000000MOEDA CORRENTE 00000010000000000000BRCMIGACNOR62170               0000000120                                            
0202LOTE PADRAO                   CEMIG       PN      N1.CMIG4       010VISTA          0000000000054600000000575000000005440000000056600000000572+005920000000057100000000572219090000000127342000000000721197090000000000000000000000MOEDA CORRENTE 00000010000000000000BRCMIGACNPR32170               0000000592                                            
0202LOTE PADRAO                   CESP        ON      N1 CESP3       010VISTA          0000000000089700000000947000000008970000000093700000000940+007920000000088500000000940000120000000000022000000000000206090000000000000000000000MOEDA CORRENTE 00000010000000000000BRCESPACNOR31640               0000000792                                            
0202LOTE PADRAO                   CESP        PNA     N1 CESP5       010VISTA          0000000000000000000000000000000000000000000000000000000000/000000000000145000000000000000000000000000000000000000000000000000000000000000000000MOEDA CORRENTE 00000010000000000000BRCESPACNPA61120               0000000000                                            
0202LOTE PADRAO                   CESP        PNB     N1.CESP6       010VISTA          0000000000114300000001174000000011280000000116300000001166+002010000000116600000001168048110000000018316000000000212976570000000000000000000000MOEDA CORRENTE 00000010000000000000BRCESPACNPB41230               0000000201                                            
0202LOTE PADRAO                   CETIP       ON      NM.CTIP3       010VISTA          0000000000419100000004207000000041650000000418200000004185+000070000000418500000004190044900000000014494000000000606162340000000000000000000000MOEDA CORRENTE 00000010000000000000BRCTIPACNOR21400               0000000007                                            
0202LOTE PADRAO                   CHEVRON     DRN        CHVX34      010VISTA          0000000000000000000000000000000000000000000000000000000000/000000000001718000000017452000000000000000000000000000000000000000000000000000000000MOEDA CORRENTE 00000010000000000000BRCHVXBDR0081210               0000000000                                            
0202LOTE PADRAO                   CIA HERING  ON      NM HGTX3       010VISTA          0000000000133900000001384000000013230000000136100000001350+001800000000135000000001370022450000000005286000000000071932290000000000000000000000MOEDA CORRENTE 00000010000000000000BRHGTXACNOR91340               0000000180                                            
0202LOTE PADRAO                   CIELO       ON      NM.CIEL3       010VISTA          0000000000333900000003382000000032720000000331900000003316-000560000000331400000003316078500000000066978000000002222933560000000000000000000000MOEDA CORRENTE 00000010000000000000BRCIELACNOR31200               0000000056                                            
0202LOTE PADRAO                   CISCO       DRN        CSCO34      010VISTA          0000000000000000000000000000000000000000000000000000000000/000000000000977400000009948000000000000000000000000000000000000000000000000000000000MOEDA CORRENTE 00000010000000000000BRCSCOBDR0041210               0000000000                                            
0202LOTE PADRAO                   CITIGROUP   DRN        CTGP34      010VISTA          0000000000000000000000000000000000000000000000000000000000/000000000001437300000014619000000000000000000000000000000000000000000000000000000000MOEDA CORRENTE 00000010000000000000BRCTGPBDR0001220               0000000000                                            
0202LOTE PADRAO                   COCA COLA   DRN ED     COCA34      010VISTA          0000000001538500000015385000000153300000001536400000015330-002290000001516900000015409000020000000000024000000000003687450000000000000000000000MOEDA CORRENTE 00000010000000000000BRCOCABDR0021190               0000000229                                            
0202LOTE PADRAO                   COELBA      ON         CEEB3       010VISTA          0000000000000000000000000000000000000000000000000000000000/000000000000000000000002499000000000000000000000000000000000000000000000000000000000MOEDA CORRENTE 00000010000000000000BRCEEBACNOR31670               0000000000                                            
0202LOTE PADRAO                   COELCE      ON         COCE3       010VISTA          0000000000000000000000000000000000000000000000000000000000/000000000000375000000003900000000000000000000000000000000000000000000000000000000000MOEDA CORRENTE 00000010000000000000BRCOCEACNOR01350               0000000000                                            
0202LOTE PADRAO                   COELCE      PNA        COCE5       010VISTA          0000000000400000000004130000000039960000000403000000004020+003070000000402000000004037002580000000000615000000000024781840000000000000000000000MOEDA CORRENTE 00000010000000000000BRCOCEACNPA31360               0000000307                                            
0202LOTE PADRAO                   COGNIZANT   DRN        CTSH34      010VISTA          0000000002041900000020419000000204190000002041900000020419-005700000000000000000000000000010000000000001000000000000204190000000000000000000000MOEDA CORRENTE 00000010000000000000BRCTSHBDR0021000               0000000570                                            
0202LOTE PADRAO                   COLGATE     DRN        COLG34      010VISTA          0000000000000000000000000000000000000000000000000000000000/000000000002418000000024559000000000000000000000000000000000000000000000000000000000MOEDA CORRENTE 00000010000000000000BRCOLGBDR0001200               0000000000                                            
0202LOTE PADRAO                   COMCAST     DRN        CMCS34      010VISTA          0000000002125000000021250000000212500000002125000000021250-001930000002112000000021466000010000000000001000000000000212500000000000000000000000MOEDA CORRENTE 00000010000000000000BRCMCSBDR0081170               0000000193                                            
0202LOTE PADRAO                   COMGAS      ON         CGAS3       010VISTA          0000000000424600000004300000000042460000000427300000004300+001290000000421800000004300000090000000000020000000000000854600000000000000000000000MOEDA CORRENTE 00000010000000000000BRCGASACNOR01390               0000000129                                            
0202LOTE PADRAO                   COMGAS      PNA        CGAS5       010VISTA          0000000000466000000004719000000046560000000469200000004672+000250000000465800000004672001970000000000342000000000016046780000000000000000000000MOEDA CORRENTE 00000010000000000000BRCGASACNPA31360               0000000025                                            
0202LOTE PADRAO                   CONST A LINDPN         CALI4       010VISTA          0000000000000000000000000000000000000000000000000000000000/000000000000000000000025800000000000000000000000000000000000000000000000000000000000MOEDA CORRENTE 00000010000000000000BRCALIACNPR81340               0000000000                                            
0202LOTE PADRAO                   CONTAX      ON      N2 CTAX3       010VISTA          0000000000106000000001078000000009980000000103400000000999-005480000000099900000001000001140000000000272000000000002811870000000000000000000000MOEDA CORRENTE 00000010000000000000BRCTAXACNOR31170               0000000548                                            
0202LOTE PADRAO                   COPASA      ON      NM CSMG3       010VISTA          0000000000268600000002690000000026520000000268500000002690+000900000000266000000002690007440000000001710000000000045912520000000000000000000000MOEDA CORRENTE 00000010000000000000BRCSMGACNOR51380               0000000090                                            
0202LOTE PADRAO                   COPEL       ON      N1 CPLE3       010VISTA          0000000000170300000001753000000017020000000173800000001745+002040000000171400000001749000720000000000115000000000001999180000000000000000000000MOEDA CORRENTE 00000010000000000000BRCPLEACNOR81330               0000000204                                            
0202LOTE PADRAO                   COPEL       PNB     N1.CPLE6       010VISTA          0000000000268000000002744000000026650000000268500000002678+001130000000267700000002678063450000000015143000000000406591250000000000000000000000MOEDA CORRENTE 00000010000000000000BRCPLEACNPB91300               0000000113                                            
0202LOTE PADRAO                   COPHILLIPS  DRN        COPH34      010VISTA          0000000000375500000003755000000037550000000375500000003755-000390000000372400000003804000010000000000001000000000000037550000000000000000000000MOEDA CORRENTE 00000010000000000000BRCOPHBDR0091180               0000000039                                            
0202LOTE PADRAO                   COR RIBEIRO PN         CORR4       010VISTA          0000000000000000000000000000000000000000000000000000000000/000000000000000000000012000000000000000000000000000000000000000000000000000000000000MOEDA CORRENTE 00000010000000000000BRCORRACNPR70180               0000000000                                            
0202LOTE PADRAO                   COSAN       ON      NM.CSAN3       010VISTA          0000000000323900000003318000000032250000000327500000003274+001670000000327000000003274027170000000010255000000000335809430000000000000000000000MOEDA CORRENTE 00000010000000000000BRCSANACNOR61150               0000000167                                            
0202LOTE PADRAO                   COSAN LOG   ON  EG  NM RLOG3       010VISTA          0000000000033800000000347000000003370000000034100000000344+002380000000034000000000344003250000000003179000000000010843940000000000000000000000MOEDA CORRENTE 00000010000000000000BRRLOGACNOR41030               0000000238                                            
0202LOTE PADRAO                   COSAN LTD   DR3        CZLT33      010VISTA          0000000000206000000002125000000020550000000210700000002125+002650000000212500000002134000800000000000149000000000003139080000000000000000000000MOEDA CORRENTE 00000010000000000000BRCZLTBDR0091090               0000000265                                            
0202LOTE PADRAO                   COSERN      ON         CSRN3       010VISTA          0000000000000000000000000000000000000000000000000000000000/000000000000110000000001300000000000000000000000000000000000000000000000000000000000MOEDA CORRENTE 00000010000000000000BRCSRNACNOR01570               0000000000                                            
0202LOTE PADRAO                   COSERN      PNA        CSRN5       010VISTA          0000000000000000000000000000000000000000000000000000000000/000000000000107000000001500000000000000000000000000000000000000000000000000000000000MOEDA CORRENTE 00000010000000000000BRCSRNACNPA31570               0000000000                                            
0202LOTE PADRAO                   COSERN      PNB        CSRN6       010VISTA          0000000000000000000000000000000000000000000000000000000000/000000000000100000000001500000000000000000000000000000000000000000000000000000000000MOEDA CORRENTE 00000010000000000000BRCSRNACNPB11580               0000000000                                            
0202LOTE PADRAO                   COTEMINAS   ON         CTNM3       010VISTA          0000000000000000000000000000000000000000000000000000000000/000000000000021100000000320000000000000000000000000000000000000000000000000000000000MOEDA CORRENTE 00000010000000000000BRCTNMACNOR91300               0000000000                                            
0202LOTE PADRAO                   COTEMINAS   PN         CTNM4       010VISTA          0000000000000000000000000000000000000000000000000000000000/000000000000025100000000263000000000000000000000000000000000000000000000000000000000MOEDA CORRENTE 00000010000000000000BRCTNMACNPR61290               0000000000                                            
0202LOTE PADRAO                   COTY INC    DRN        COTY34      010VISTA          0000000000000000000000000000000000000000000000000000000000/000000000000444000000004511000000000000000000000000000000000000000000000000000000000MOEDA CORRENTE 00000010000000000000BRCOTYBDR0061010               0000000000                                            
0202LOTE PADRAO                   CPFL ENERGIAON      NM.CPFE3       010VISTA          0000000000202900000002045000000020030000000202500000002020+000740000000202000000002030069140000000017751000000000359380230000000000000000000000MOEDA CORRENTE 00000010000000000000BRCPFEACNOR01260               0000000074                                            
0202LOTE PADRAO                   CPFL RENOVAVON      NM CPRE3       010VISTA          0000000000116200000001162000000011480000000115700000001162+000430000000105000000001165000040000000000011000000000000127260000000000000000000000MOEDA CORRENTE 00000010000000000000BRCPREACNOR51000               0000000043                                            
0202LOTE PADRAO                   CR2         ON      NM CRDE3       010VISTA          0000000000015900000000159000000001590000000015900000000159=000000000000015500000000159000020000000000009000000000000014310000000000000000000000MOEDA CORRENTE 00000010000000000000BRCRDEACNOR11090               0000000000                                            
0202LOTE PADRAO                   CREMER      ON         CREM3       010VISTA          0000000000000000000000000000000000000000000000000000000000/000000000000125200000001280000000000000000000000000000000000000000000000000000000000MOEDA CORRENTE 00000010000000000000BRCREMACNOR21740               0000000000                                            
0202LOTE PADRAO                   CRISTAL     PNA        CRPG5       010VISTA          0000000000029000000000295000000002870000000028900000000289-002360000000028800000000293000060000000000011000000000000031790000000000000000000000MOEDA CORRENTE 00000010000000000000BRCRPGACNPA31000               0000000236                                            
0202LOTE PADRAO                   CRISTAL     PNB        CRPG6       010VISTA          0000000000000000000000000000000000000000000000000000000000/000000000000026200000000269000000000000000000000000000000000000000000000000000000000MOEDA CORRENTE 00000010000000000000BRCRPGACNPB11000               0000000000                                            
0202LOTE PADRAO                   CSU CARDSYSTON      NM CARD3       010VISTA          0000000000044000000000480000000004360000000046400000000455+004350000000045500000000473002700000000001473000000000006829600000000000000000000000MOEDA CORRENTE 00000010000000000000BRCARDACNOR91080               0000000435                                            
0202LOTE PADRAO                   CVC BRASIL  ON      NM CVCB3       010VISTA          0000000000210000000002121000000020820000000210000000002095+000040000000208400000002095006190000000001694000000000035567760000000000000000000000MOEDA CORRENTE 00000010000000000000BRCVCBACNOR11050               0000000004                                            
0202LOTE PADRAO                   CVS HEALTH  DRN        CVSH34      010VISTA          0000000001644100000016441000000161400000001624400000016150-003230000000000000000000000000030000000000003000000000000487310000000000000000000000MOEDA CORRENTE 00000010000000000000BRCVSHBDR0081000               0000000323                                            
0202LOTE PADRAO                   CYRE COM-CCPON      NM CCPR3       010VISTA          0000000000101000000001010000000010100000000101000000001010=000000000000100000000001010000010000000000001000000000000010100000000000000000000000MOEDA CORRENTE 00000010000000000000BRCCPRACNOR91110               0000000000                                            
0202LOTE PADRAO                   CYRELA REALTON      NM.CYRE3       010VISTA          0000000000100500000001015000000009930000000100200000000994-000600000000099400000000999058400000000016354000000000163807590000000000000000000000MOEDA CORRENTE 00000010000000000000BRCYREACNOR71280               0000000060                                            
0202LOTE PADRAO                   DANAHER CORPDRN        DHER34      010VISTA          0000000000000000000000000000000000000000000000000000000000/000000000000828500000008429000000000000000000000000000000000000000000000000000000000MOEDA CORRENTE 00000010000000000000BRDHERBDR0041040               0000000000                                            
0202LOTE PADRAO                   DASA        ON         DASA3       010VISTA          0000000000000000000000000000000000000000000000000000000000/000000000000093000000000957000000000000000000000000000000000000000000000000000000000MOEDA CORRENTE 00000010000000000000BRDASAACNOR11110               0000000000                                            
0202LOTE PADRAO                   DAYCOVAL    PN      N2 DAYC4       010VISTA          0000000000090100000000909000000008830000000089900000000905=000000000000090500000000910000180000000000058000000000000521370000000000000000000000MOEDA CORRENTE 00000010000000000000BRDAYCACNPR21390               0000000000                                            
0202LOTE PADRAO                   DIMED       ON         PNVL3       010VISTA          0000000003880000000039400000000388000000003916000000039400+001020000003850000000039500000050000000000005000000000001958000000000000000000000000MOEDA CORRENTE 00000010000000000000BRPNVLACNOR91860               0000000102                                            
0202LOTE PADRAO                   DIMED       PN         PNVL4       010VISTA          0000000001805000000018050000000180500000001805000000018050-000270000000000000000018000000010000000000003000000000000541500000000000000000000000MOEDA CORRENTE 00000010000000000000BRPNVLACNPR61860               0000000027                                            
0202LOTE PADRAO                   DIRECIONAL  ON      NM DIRR3       010VISTA          0000000000052600000000548000000005240000000053400000000544+003420000000054300000000544024400000000010301000000000054998870000000000000000000000MOEDA CORRENTE 00000010000000000000BRDIRRACNOR01080               0000000342                                            
0202LOTE PADRAO                   DOHLER      ON         DOHL3       010VISTA          0000000000000000000000000000000000000000000000000000000000/000000000000050000000001000000000000000000000000000000000000000000000000000000000000MOEDA CORRENTE 00000010000000000000BRDOHLACNOR20550               0000000000                                            
0202LOTE PADRAO                   DOHLER      PN         DOHL4       010VISTA          0000000000040000000000400000000004000000000040000000000400-000240000000040000000000415000030000000000012000000000000048000000000000000000000000MOEDA CORRENTE 00000010000000000000BRDOHLACNPR90580               0000000024                                            
0202LOTE PADRAO                   DTCOM-DIRECTON         DTCY3       010VISTA          0000000000005000000000050000000000500000000005000000000050=000000000000004500000000050000010000000000010000000000000005000000000000000000000000MOEDA CORRENTE 00000010000000000000BRDTCYACNOR51070               0000000000                                            
0202LOTE PADRAO                   DUFRY AG    DR3        DAGB33      010VISTA          0000000004280000000044900000000425010000004329000000043300+001870000004330000000046000009760000000000154750000000066991986200000000000000000000MOEDA CORRENTE 00000010000000000000BRDAGBBDR0081020               0000000187                                            
0202LOTE PADRAO                   DURATEX     ON      NM DTEX3       010VISTA          0000000000074400000000766000000007400000000075300000000758+002430000000075400000000758047340000000026902000000000202639000000000000000000000000MOEDA CORRENTE 00000010000000000000BRDTEXACNOR31240               0000000243                                            
0202LOTE PADRAO                   EBAY        DRN        EBAY34      010VISTA          0000000000000000000000000000000000000000000000000000000000/000000000000401900000004104000000000000000000000000000000000000000000000000000000000MOEDA CORRENTE 00000010000000000000BREBAYBDR0091010               0000000000                                            
0202LOTE PADRAO                   ECORODOVIAS ON      NM.ECOR3       010VISTA          0000000000079400000000799000000007660000000077900000000770-002280000000076900000000770110560000000034179000000000266262610000000000000000000000MOEDA CORRENTE 00000010000000000000BRECORACNOR81110               0000000228                                            
0202LOTE PADRAO                   ELEKEIROZ   ON         ELEK3       010VISTA          0000000000000000000000000000000000000000000000000000000000/000000000000046000000000000000000000000000000000000000000000000000000000000000000000MOEDA CORRENTE 00000010000000000000BRELEKACNOR51190               0000000000                                            
0202LOTE PADRAO                   ELEKEIROZ   PN         ELEK4       010VISTA          0000000000000000000000000000000000000000000000000000000000/000000000000048000000000570000000000000000000000000000000000000000000000000000000000MOEDA CORRENTE 00000010000000000000BRELEKACNPR21200               0000000000                                            
0202LOTE PADRAO                   ELEKTRO     ON         EKTR3       010VISTA          0000000000000000000000000000000000000000000000000000000000/000000000000100000000002500000000000000000000000000000000000000000000000000000000000MOEDA CORRENTE 00000010000000000000BREKTRACNOR01370               0000000000                                            
0202LOTE PADRAO                   ELEKTRO     PN         EKTR4       010VISTA          0000000000000000000000000000000000000000000000000000000000/000000000000170000000001850000000000000000000000000000000000000000000000000000000000MOEDA CORRENTE 00000010000000000000BREKTRACNPR71370               0000000000                                            
0202LOTE PADRAO                   ELETROBRAS  ON      N1 ELET3       010VISTA          0000000000086000000000870000000008260000000084400000000830-002690000000083000000000836084940000000031180000000000263152550000000000000000000000MOEDA CORRENTE 00000010000000000000BRELETACNOR61520               0000000269                                            
0202LOTE PADRAO                   ELETROBRAS  PNA     N1 ELET5       010VISTA          0000000000000000000000000000000000000000000000000000000000/000000000000150000000001750000000000000000000000000000000000000000000000000000000000MOEDA CORRENTE 00000010000000000000BRELETACNPA90680               0000000000                                            
0202LOTE PADRAO                   ELETROBRAS  PNB     N1 ELET6       010VISTA          0000000000134300000001370000000013170000000133800000001330-000370000000133000000001337055210000000017183000000000229956220000000000000000000000MOEDA CORRENTE 00000010000000000000BRELETACNPB70680               0000000037                                            
0202LOTE PADRAO                   ELETROPAULO ON      N2 ELPL3       010VISTA          0000000000000000000000000000000000000000000000000000000000/000000000000045500000003400000000000000000000000000000000000000000000000000000000000MOEDA CORRENTE 00000010000000000000BRELPLACNOR91290               0000000000                                            
0202LOTE PADRAO                   ELETROPAULO PN      N2 ELPL4       010VISTA          0000000000066300000000678000000006630000000066800000000664+000150000000066400000000665013030000000004672000000000031220140000000000000000000000MOEDA CORRENTE 00000010000000000000BRELPLACNPR61200               0000000015                                            
0202LOTE PADRAO                   EMAE        PN         EMAE4       010VISTA          0000000000000000000000000000000000000000000000000000000000/000000000000044700000000480000000000000000000000000000000000000000000000000000000000MOEDA CORRENTE 00000010000000000000BREMAEACNPR11080               0000000000                                            
0202LOTE PADRAO                   EMBRAER     ON      NM.EMBR3       010VISTA          0000000000184000000001850000000017940000000180700000001796-001530000000179600000001800069870000000026096000000000471600290000000000000000000000MOEDA CORRENTE 00000010000000000000BREMBRACNOR41770               0000000153                                            
0202LOTE PADRAO                   ENCORPAR    ON         ECPR3       010VISTA          0000000000000000000000000000000000000000000000000000000000/000000000000155100000003999000000000000000000000000000000000000000000000000000000000MOEDA CORRENTE 00000010000000000000BRECPRACNOR51090               0000000000                                            
0202LOTE PADRAO                   ENCORPAR    PN         ECPR4       010VISTA          0000000000000000000000000000000000000000000000000000000000/000000000000000000000003750000000000000000000000000000000000000000000000000000000000MOEDA CORRENTE 00000010000000000000BRECPRACNPR21090               0000000000                                            
0202LOTE PADRAO                   ENERGIAS BR ON      NM.ENBR3       010VISTA          0000000000127200000001275000000012540000000126200000001261-000470000000126000000001261056320000000023887000000000301511760000000000000000000000MOEDA CORRENTE 00000010000000000000BRENBRACNOR21220               0000000047                                            
0202LOTE PADRAO                   ENERGISA    ON         ENGI3       010VISTA          0000000000000000000000000000000000000000000000000000000000/000000000000026100000000320000000000000000000000000000000000000000000000000000000000MOEDA CORRENTE 00000010000000000000BRENGIACNOR01270               0000000000                                            
0202LOTE PADRAO                   ENERGISA    PN         ENGI4       010VISTA          0000000000027800000000278000000002780000000027800000000278+001830000000027800000000308000010000000000001000000000000002780000000000000000000000MOEDA CORRENTE 00000010000000000000BRENGIACNPR71230               0000000183                                            
0202LOTE PADRAO                   ENERGISA    UNT        ENGI11      010VISTA          0000000000000000000000000000000000000000000000000000000000/000000000000161000000001671000000000000000000000000000000000000000000000000000000000MOEDA CORRENTE 00000010000000000000BRENGICDAM161170               0000000000                                            
0202LOTE PADRAO                   ENERGISA MT ON         ENMT3       010VISTA          0000000000000000000000000000000000000000000000000000000000/000000000000070100000000000000000000000000000000000000000000000000000000000000000000MOEDA CORRENTE 00000010000000000000BRENMTACNOR51040               0000000000                                            
0202LOTE PADRAO                   ENERGISA MT PN         ENMT4       010VISTA          0000000000000000000000000000000000000000000000000000000000/000000000000072100000001499000000000000000000000000000000000000000000000000000000000MOEDA CORRENTE 00000010000000000000BRENMTACNPR21040               0000000000                                            
0202LOTE PADRAO                   EQUATORIAL  ON      NM.EQTL3       010VISTA          0000000000474600000004778000000047260000000476000000004749+000120000000474800000004749049050000000014397000000000685236010000000000000000000000MOEDA CORRENTE 00000010000000000000BREQTLACNOR01190               0000000012                                            
0202LOTE PADRAO                   ESTACIO PARTON      NM.ESTC3       010VISTA          0000000000147500000001588000000014600000000153300000001580+007260000000157600000001580128460000000082641000000001266985420000000000000000000000MOEDA CORRENTE 00000010000000000000BRESTCACNOR51110               0000000726                                            
0202LOTE PADRAO                   ESTRELA     ON         ESTR3       010VISTA          0000000000000000000000000000000000000000000000000000000000/000000000000010000000000000000000000000000000000000000000000000000000000000000000000MOEDA CORRENTE 00000010000000000000BRESTRACNOR31420               0000000000                                            
0202LOTE PADRAO                   ESTRELA     PN         ESTR4       010VISTA          0000000000004900000000052000000000480000000005000000000051-001920000000004700000000051000070000000000077000000000000038410000000000000000000000MOEDA CORRENTE 00000010000000000000BRESTRACNPR01420               0000000192                                            
0202LOTE PADRAO                   ETERNIT     ON      NM ETER3       010VISTA          0000000000016200000000162000000001590000000016000000000159-000620000000015900000000160001450000000000980000000000001570220000000000000000000000MOEDA CORRENTE 00000010000000000000BRETERACNOR32300               0000000062                                            
0202LOTE PADRAO                   EUCATEX     PN      N1 EUCA4       010VISTA          0000000000024200000000242000000002410000000024100000000241=000000000000023200000000241000040000000000010000000000000024120000000000000000000000MOEDA CORRENTE 00000010000000000000BREUCAACNPR80350               0000000000                                            
0202LOTE PADRAO                   EVEN        ON      NM EVEN3       010VISTA          0000000000038400000000389000000003810000000038400000000385-000250000000038500000000386013530000000006660000000000025576100000000000000000000000MOEDA CORRENTE 00000010000000000000BREVENACNOR81110               0000000025                                            
0202LOTE PADRAO                   EVORA       ON         PTPA3       010VISTA          0000000000000000000000000000000000000000000000000000000000/000000000000670000000009990000000000000000000000000000000000000000000000000000000000MOEDA CORRENTE 00000010000000000000BRPTPAACNOR11780               0000000000                                            
0202LOTE PADRAO                   EVORA       PN         PTPA4       010VISTA          0000000000000000000000000000000000000000000000000000000000/000000000000660600000007700000000000000000000000000000000000000000000000000000000000MOEDA CORRENTE 00000010000000000000BRPTPAACNPR81780               0000000000                                            
0202LOTE PADRAO                   EXCELSIOR   PN         BAUH4       010VISTA          0000000000000000000000000000000000000000000000000000000000/000000000000061500000000650000000000000000000000000000000000000000000000000000000000MOEDA CORRENTE 00000010000000000000BRBAUHACNPR31110               0000000000                                            
0202LOTE PADRAO                   EXXON MOBIL DRN        EXXO34      010VISTA          0000000000773600000007736000000077360000000773600000007736-001210000000767400000007810000010000000000001000000000000077360000000000000000000000MOEDA CORRENTE 00000010000000000000BREXXOBDR0061230               0000000121                                            
0202LOTE PADRAO                   EZTEC       ON      NM EZTC3       010VISTA          0000000000160200000001602000000015500000000156700000001570-001190000000157000000001579015140000000005251000000000082269370000000000000000000000MOEDA CORRENTE 00000010000000000000BREZTCACNOR01090               0000000119                                            
0202LOTE PADRAO                   FACEBOOK    DRN        FBOK34      010VISTA          0000000001929000000019290000000192900000001929000000019290-002940000001910200000019413000010000000000001000000000000192900000000000000000000000MOEDA CORRENTE 00000010000000000000BRFBOKBDR0061000               0000000294                                            
0202LOTE PADRAO                   FER HERINGERON      NM FHER3       010VISTA          0000000000018900000000198000000001850000000019000000000187+002180000000018700000000190001940000000001879000000000003575640000000000000000000000MOEDA CORRENTE 00000010000000000000BRFHERACNOR51030               0000000218                                            
0202LOTE PADRAO                   FERBASA     ON      N1 FESA3       010VISTA          0000000000101100000001011000000010110000000101100000001011+001100000000101000000001550000010000000000001000000000000010110000000000000000000000MOEDA CORRENTE 00000010000000000000BRFESAACNOR81550               0000000110                                            
0202LOTE PADRAO                   FERBASA     PN      N1 FESA4       010VISTA          0000000000073900000000756000000007290000000073500000000731+000410000000073000000000731006350000000002144000000000015748540000000000000000000000MOEDA CORRENTE 00000010000000000000BRFESAACNPR50510               0000000041                                            
0202LOTE PADRAO                   FIBRIA      ON      NM.FIBR3       010VISTA          0000000000272700000002735000000026440000000266500000002644-002970000000264400000002650133770000000029836000000000795022940000000000000000000000MOEDA CORRENTE 00000010000000000000BRFIBRACNOR91050               0000000297                                            
0202LOTE PADRAO                   FLEURY      ON      NM FLRY3       010VISTA          0000000000262000000002678000000026200000000266300000002671+001170000000266300000002671023130000000005628000000000149853880000000000000000000000MOEDA CORRENTE 00000010000000000000BRFLRYACNOR51140               0000000117                                            
0202LOTE PADRAO                   FORD MOTORS DRN        FDMO34      010VISTA          0000000000455400000004554000000045500000000455300000004550+000750000000448800000004583000030000000000022000000000001001680000000000000000000000MOEDA CORRENTE 00000010000000000000BRFDMOBDR0081170               0000000075                                            
0202LOTE PADRAO                   FORJA TAURUSON      N2 FJTA3       010VISTA          0000000000013600000000155000000001360000000014600000000155+002640000000014600000000155000020000000000002000000000000002910000000000000000000000MOEDA CORRENTE 00000010000000000000BRFJTAACNOR51550               0000000264                                            
0202LOTE PADRAO                   FORJA TAURUSPN      N2 FJTA4       010VISTA          0000000000013700000000140000000001370000000013900000000140+002940000000013900000000140000090000000000062000000000000085960000000000000000000000MOEDA CORRENTE 00000010000000000000BRFJTAACNPR21560               0000000294                                            
0202LOTE PADRAO                   FRAS-LE     ON      N1 FRAS3       010VISTA          0000000000036600000000366000000003510000000035600000000351-004870000000035100000000360000100000000000049000000000000174660000000000000000000000MOEDA CORRENTE 00000010000000000000BRFRASACNOR01390               0000000487                                            
0202LOTE PADRAO                   FREEPORT    DRN        FCXO34      010VISTA          0000000000000000000000000000000000000000000000000000000000/000000000000377800000003840000000000000000000000000000000000000000000000000000000000MOEDA CORRENTE 00000010000000000000BRFCXOBDR0071240               0000000000                                            
0202LOTE PADRAO                   GAFISA      ON      NM GFSA3       010VISTA          0000000000018000000000188000000001780000000018300000000184+003370000000018300000000184075300000000068316000000000124755850000000000000000000000MOEDA CORRENTE 00000010000000000000BRGFSAACNOR31110               0000000337                                            
0202LOTE PADRAO                   GE          DRN ED     GEOO34      010VISTA          0000000001054000000010540000000105400000001054000000010540+000040000001036900000010548000010000000000002000000000000210800000000000000000000000MOEDA CORRENTE 00000010000000000000BRGEOOBDR0001230               0000000004                                            
0202LOTE PADRAO                   GENERALSHOPPON      NM GSHP3       010VISTA          0000000000034700000000350000000003400000000034900000000350+001740000000034500000000350000270000000000431000000000001502550000000000000000000000MOEDA CORRENTE 00000010000000000000BRGSHPACNOR71000               0000000174                                            
0202LOTE PADRAO                   GER PARANAP PN         GEPA4       010VISTA          0000000000000000000000000000000000000000000000000000000000/000000000000365000000004180000000000000000000000000000000000000000000000000000000000MOEDA CORRENTE 00000010000000000000BRGEPAACNPR91410               0000000000                                            
0202LOTE PADRAO                   GERDAU      ON      N1 GGBR3       010VISTA          0000000000042800000000440000000004190000000042500000000421-001630000000041700000000421002690000000001807000000000007674210000000000000000000000MOEDA CORRENTE 00000010000000000000BRGGBRACNOR11600               0000000163                                            
0202LOTE PADRAO                   GERDAU      PN      N1.GGBR4       010VISTA          0000000000060500000000620000000005870000000060200000000587-001670000000058600000000587139910000000124823000000000751271430000000000000000000000MOEDA CORRENTE 00000010000000000000BRGGBRACNPR81600               0000000167                                            
0202LOTE PADRAO                   GERDAU MET  ON      N1 GOAU3       010VISTA          0000000000021000000000215000000002050000000021100000000205-001910000000020400000000214000170000000000143000000000000302370000000000000000000000MOEDA CORRENTE 00000010000000000000BRGOAUACNOR12400               0000000191                                            
0202LOTE PADRAO                   GERDAU MET  PN      N1.GOAU4       010VISTA          0000000000020500000000210000000001980000000020400000000201+000500000000020000000000201076250000000145746000000000297339200000000000000000000000MOEDA CORRENTE 00000010000000000000BRGOAUACNPR82410               0000000050                                            
0202LOTE PADRAO                   GOL         PN      N2 GOLL4       010VISTA          0000000000024600000000262000000002450000000025500000000260+006120000000026000000000261023610000000030052000000000076711640000000000000000000000MOEDA CORRENTE 00000010000000000000BRGOLLACNPR41230               0000000612                                            
0202LOTE PADRAO                   GOLDMANSACHSDRN        GSGI34      010VISTA          0000000000498000000004980000000049800000000498000000004980-001960000000492400000005026000010000000000014000000000000697200000000000000000000000MOEDA CORRENTE 00000010000000000000BRGSGIBDR0081230               0000000196                                            
0202LOTE PADRAO                   GP INVEST   DR3        GPIV33      010VISTA          0000000000074900000000750000000007400000000075000000000750+000130000000073700000000750000500000000000174000000000001304510000000000000000000000MOEDA CORRENTE 00000010000000000000BRGPIVBDR0031040               0000000013                                            
0202LOTE PADRAO                   GRAZZIOTIN  ON         CGRA3       010VISTA          0000000000126000000001260000000012600000000126000000001260-000070000000120000000001400000020000000000003000000000000037800000000000000000000000MOEDA CORRENTE 00000010000000000000BRCGRAACNOR20660               0000000007                                            
0202LOTE PADRAO                   GRAZZIOTIN  PN         CGRA4       010VISTA          0000000000120300000001207000000012000000000120200000001200+000410000000119600000001200000090000000000091000000000001093690000000000000000000000MOEDA CORRENTE 00000010000000000000BRCGRAACNPR90660               0000000041                                            
0202LOTE PADRAO                   GRENDENE    ON      NM GRND3       010VISTA          0000000000159100000001593000000015750000000158400000001584+000500000000158400000001591006600000000001376000000000021795850000000000000000000000MOEDA CORRENTE 00000010000000000000BRGRNDACNOR31420               0000000050                                            
0202LOTE PADRAO                   GUARARAPES  ON         GUAR3       010VISTA          0000000000537400000005469000000053730000000539500000005380+000650000000538000000005381000180000000000035000000000001888230000000000000000000000MOEDA CORRENTE 00000010000000000000BRGUARACNOR41500               0000000065                                            
0202LOTE PADRAO                   GUARARAPES  PN         GUAR4       010VISTA          0000000000540000000005450000000053500000000540900000005449+001850000000543000000005450000180000000000022000000000001190080000000000000000000000MOEDA CORRENTE 00000010000000000000BRGUARACNPR11500               0000000185                                            
0202LOTE PADRAO                   HABITASUL   PNA        HBTS5       010VISTA          0000000000000000000000000000000000000000000000000000000000/000000000000050700000000800000000000000000000000000000000000000000000000000000000000MOEDA CORRENTE 00000010000000000000BRHBTSACNPA31200               0000000000                                            
0202LOTE PADRAO                   HAGA S/A    ON         HAGA3       010VISTA          0000000000000000000000000000000000000000000000000000000000/000000000000017000000000239000000000000000000000000000000000000000000000000000000000MOEDA CORRENTE 00000010000000000000BRHAGAACNOR71030               0000000000                                            
0202LOTE PADRAO                   HAGA S/A    PN         HAGA4       010VISTA          0000000000020500000000205000000002050000000020500000000205=000000000000017100000000205000030000000000003000000000000006150000000000000000000000MOEDA CORRENTE 00000010000000000000BRHAGAACNPR41030               0000000000                                            
0202LOTE PADRAO                   HALLIBURTON DRN        HALI34      010VISTA          0000000000000000000000000000000000000000000000000000000000/000000000001491000000015163000000000000000000000000000000000000000000000000000000000MOEDA CORRENTE 00000010000000000000BRHALIBDR0041180               0000000000                                            
0202LOTE PADRAO                   HELBOR      ON      NM HBOR3       010VISTA          0000000000014300000000146000000001410000000014400000000144+000690000000014300000000144002310000000001365000000000001967110000000000000000000000MOEDA CORRENTE 00000010000000000000BRHBORACNOR31110               0000000069                                            
0202LOTE PADRAO                   HERCULES    ON         HETA3       010VISTA          0000000000000000000000000000000000000000000000000000000000/000000000000050000000000000000000000000000000000000000000000000000000000000000000000MOEDA CORRENTE 00000010000000000000BRHETAACNOR21360               0000000000                                            
0202LOTE PADRAO                   HERCULES    PN         HETA4       010VISTA          0000000000000000000000000000000000000000000000000000000000/000000000000045000000000540000000000000000000000000000000000000000000000000000000000MOEDA CORRENTE 00000010000000000000BRHETAACNPR91360               0000000000                                            
0202LOTE PADRAO                   HERSHEY CO  DRN        HSHY34      010VISTA          0000000000000000000000000000000000000000000000000000000000/000000000000656200000006685000000000000000000000000000000000000000000000000000000000MOEDA CORRENTE 00000010000000000000BRHSHYBDR0011040               0000000000                                            
0202LOTE PADRAO                   HOME DEPOT  DRN        HOME34      010VISTA          0000000002175400000021790000000217540000002178300000021790-001120000002154200000021889000020000000000016000000000003485320000000000000000000000MOEDA CORRENTE 00000010000000000000BRHOMEBDR0021170               0000000112                                            
0202LOTE PADRAO                   HOTEIS OTHONPN         HOOT4       010VISTA          0000000000031100000000312000000003110000000031100000000311+003660000000026000000000311000100000000000020000000000000062210000000000000000000000MOEDA CORRENTE 00000010000000000000BRHOOTACNPR90150               0000000366                                            
0202LOTE PADRAO                   HYPERMARCAS ON      NM.HYPE3       010VISTA          0000000000280000000002820000000027720000000279700000002790=000000000000279000000002792107150000000031997000000000894977560000000000000000000000MOEDA CORRENTE 00000010000000000000BRHYPEACNOR01070               0000000000                                            
0202LOTE PADRAO                   IDEIASNET   ON      NM IDNT3       010VISTA          0000000000072000000000735000000006990000000070700000000699-001960000000068200000000700000210000000000043000000000000304090000000000000000000000MOEDA CORRENTE 00000010000000000000BRIDNTACNOR51130               0000000196                                            
0202LOTE PADRAO                   IGUATEMI    ON      NM IGTA3       010VISTA          0000000000274000000002741000000026950000000271700000002715-000360000000271000000002715019070000000003391000000000092132080000000000000000000000MOEDA CORRENTE 00000010000000000000BRIGTAACNOR51180               0000000036                                            
0202LOTE PADRAO                   IMC S/A     ON      NM MEAL3       010VISTA          0000000000038500000000390000000003830000000038600000000383+000260000000038300000000385004950000000001075000000000004152710000000000000000000000MOEDA CORRENTE 00000010000000000000BRMEALACNOR91010               0000000026                                            
0202LOTE PADRAO                   INDS ROMI   ON      NM ROMI3       010VISTA          0000000000019400000000198000000001940000000019600000000196+001030000000019500000000196001060000000000616000000000001207840000000000000000000000MOEDA CORRENTE 00000010000000000000BRROMIACNOR81640               0000000103                                            
0202LOTE PADRAO                   INDUSVAL    ON      N2 IDVL3       010VISTA          0000000000011100000000111000000001100000000011100000000111-002630000000011000000000137000040000000000021000000000000023220000000000000000000000MOEDA CORRENTE 00000010000000000000BRIDVLACNOR51260               0000000263                                            
0202LOTE PADRAO                   INDUSVAL    PN      N2 IDVL4       010VISTA          0000000000012500000000125000000001190000000012100000000122+000820000000012100000000122000080000000000018000000000000021770000000000000000000000MOEDA CORRENTE 00000010000000000000BRIDVLACNPR21260               0000000082                                            
0202LOTE PADRAO                   INTEL       DRN        ITLC34      010VISTA          0000000001086000000010860000000108600000001086000000010860-000980000001073900000010928000010000000000025000000000002715000000000000000000000000MOEDA CORRENTE 00000010000000000000BRITLCBDR0051220               0000000098                                            
0202LOTE PADRAO                   IOCHP-MAXIONON      NM MYPK3       010VISTA          0000000000142400000001485000000014160000000144400000001439+001550000000143900000001445010720000000001968000000000028420280000000000000000000000MOEDA CORRENTE 00000010000000000000BRMYPKACNOR71400               0000000155                                            
0202LOTE PADRAO                   ISHARE SP500CI         IVVB11      010VISTA          0000000000750000000007500000000073160000000733300000007316-001780000000730000000007316000140000000000056200000000004120954000000000000000000000MOEDA CORRENTE 00000010000000000000BRIVVBCTF0011000               0000000178                                            
0202LOTE PADRAO                   ISHARES BOVACI         BOVA11      010VISTA          0000000000482400000004870000000047870000000482400000004802+000040000000479600000004805082100000000041052500000001980381275000000000000000000000MOEDA CORRENTE 00000010000000000000BRBOVACTF0031020               0000000004                                            
0202LOTE PADRAO                   ISHARES BRAXCI         BRAX11      010VISTA          0000000000000000000000000000000000000000000000000000000000/000000000000402500000000000000000000000000000000000000000000000000000000000000000000MOEDA CORRENTE 00000010000000000000BRBRAXCTF0021000               0000000000                                            
